{
  "contractName": "Whitelist",
  "abi": [
    {
      "constant": false,
      "inputs": [
        {
          "name": "account",
          "type": "address"
        }
      ],
      "name": "removeAdmin",
      "outputs": [],
      "payable": false,
      "stateMutability": "nonpayable",
      "type": "function"
    },
    {
      "constant": true,
      "inputs": [
        {
          "name": "account",
          "type": "address"
        }
      ],
      "name": "isAdmin",
      "outputs": [
        {
          "name": "",
          "type": "bool"
        }
      ],
      "payable": false,
      "stateMutability": "view",
      "type": "function"
    },
    {
      "constant": false,
      "inputs": [
        {
          "name": "account",
          "type": "address"
        }
      ],
      "name": "addAdmin",
      "outputs": [],
      "payable": false,
      "stateMutability": "nonpayable",
      "type": "function"
    },
    {
      "constant": true,
      "inputs": [],
      "name": "owner",
      "outputs": [
        {
          "name": "",
          "type": "address"
        }
      ],
      "payable": false,
      "stateMutability": "view",
      "type": "function"
    },
    {
      "constant": false,
      "inputs": [
        {
          "name": "newOwner",
          "type": "address"
        }
      ],
      "name": "transferOwnership",
      "outputs": [],
      "payable": false,
      "stateMutability": "nonpayable",
      "type": "function"
    },
    {
      "constant": false,
      "inputs": [
        {
          "name": "account",
          "type": "address"
        }
      ],
      "name": "addWhitelist",
      "outputs": [],
      "payable": false,
      "stateMutability": "nonpayable",
      "type": "function"
    },
    {
      "constant": true,
      "inputs": [
        {
          "name": "account",
          "type": "address"
        }
      ],
      "name": "isWhitelist",
      "outputs": [
        {
          "name": "",
          "type": "bool"
        }
      ],
      "payable": false,
      "stateMutability": "view",
      "type": "function"
    },
    {
      "constant": false,
      "inputs": [
        {
          "name": "account",
          "type": "address"
        }
      ],
      "name": "removeWhitelisted",
      "outputs": [],
      "payable": false,
      "stateMutability": "nonpayable",
      "type": "function"
    }
  ],
  "bytecode": "0x6080604052336000806101000a81548173ffffffffffffffffffffffffffffffffffffffff021916908373ffffffffffffffffffffffffffffffffffffffff16021790555060018060003373ffffffffffffffffffffffffffffffffffffffff1673ffffffffffffffffffffffffffffffffffffffff16815260200190815260200160002060006101000a81548160ff021916908315150217905550610a07806100aa6000396000f3fe608060405234801561001057600080fd5b50600436106100a5576000357c0100000000000000000000000000000000000000000000000000000000900480638da5cb5b116100785780638da5cb5b146101d2578063c683630d1461021c578063f2fde38b14610278578063f80f5dd5146102bc576100a5565b80631785f53c146100aa57806324d7806c146100ee578063291d95491461014a578063704802751461018e575b600080fd5b6100ec600480360360208110156100c057600080fd5b81019080803573ffffffffffffffffffffffffffffffffffffffff169060200190929190505050610300565b005b6101306004803603602081101561010457600080fd5b81019080803573ffffffffffffffffffffffffffffffffffffffff169060200190929190505050610443565b604051808215151515815260200191505060405180910390f35b61018c6004803603602081101561016057600080fd5b81019080803573ffffffffffffffffffffffffffffffffffffffff1690602001909291905050506104f2565b005b6101d0600480360360208110156101a457600080fd5b81019080803573ffffffffffffffffffffffffffffffffffffffff169060200190929190505050610639565b005b6101da61077c565b604051808273ffffffffffffffffffffffffffffffffffffffff1673ffffffffffffffffffffffffffffffffffffffff16815260200191505060405180910390f35b61025e6004803603602081101561023257600080fd5b81019080803573ffffffffffffffffffffffffffffffffffffffff1690602001909291905050506107a1565b604051808215151515815260200191505060405180910390f35b6102ba6004803603602081101561028e57600080fd5b81019080803573ffffffffffffffffffffffffffffffffffffffff1690602001909291905050506107f7565b005b6102fe600480360360208110156102d257600080fd5b81019080803573ffffffffffffffffffffffffffffffffffffffff169060200190929190505050610893565b005b6000809054906101000a900473ffffffffffffffffffffffffffffffffffffffff1673ffffffffffffffffffffffffffffffffffffffff163373ffffffffffffffffffffffffffffffffffffffff161461035957600080fd5b600073ffffffffffffffffffffffffffffffffffffffff168173ffffffffffffffffffffffffffffffffffffffff16141580156103e05750600160008273ffffffffffffffffffffffffffffffffffffffff1673ffffffffffffffffffffffffffffffffffffffff16815260200190815260200160002060009054906101000a900460ff16155b6103e957600080fd5b60018060008373ffffffffffffffffffffffffffffffffffffffff1673ffffffffffffffffffffffffffffffffffffffff16815260200190815260200160002060006101000a81548160ff02191690831515021790555050565b60008060009054906101000a900473ffffffffffffffffffffffffffffffffffffffff1673ffffffffffffffffffffffffffffffffffffffff163373ffffffffffffffffffffffffffffffffffffffff161461049e57600080fd5b600160008373ffffffffffffffffffffffffffffffffffffffff1673ffffffffffffffffffffffffffffffffffffffff16815260200190815260200160002060009054906101000a900460ff169050919050565b60011515600160003373ffffffffffffffffffffffffffffffffffffffff1673ffffffffffffffffffffffffffffffffffffffff16815260200190815260200160002060009054906101000a900460ff1615151461054f57600080fd5b600073ffffffffffffffffffffffffffffffffffffffff168173ffffffffffffffffffffffffffffffffffffffff16141580156105d55750600260008273ffffffffffffffffffffffffffffffffffffffff1673ffffffffffffffffffffffffffffffffffffffff16815260200190815260200160002060009054906101000a900460ff165b6105de57600080fd5b6000600260008373ffffffffffffffffffffffffffffffffffffffff1673ffffffffffffffffffffffffffffffffffffffff16815260200190815260200160002060006101000a81548160ff02191690831515021790555050565b6000809054906101000a900473ffffffffffffffffffffffffffffffffffffffff1673ffffffffffffffffffffffffffffffffffffffff163373ffffffffffffffffffffffffffffffffffffffff161461069257600080fd5b600073ffffffffffffffffffffffffffffffffffffffff168173ffffffffffffffffffffffffffffffffffffffff16141580156107195750600160008273ffffffffffffffffffffffffffffffffffffffff1673ffffffffffffffffffffffffffffffffffffffff16815260200190815260200160002060009054906101000a900460ff16155b61072257600080fd5b60018060008373ffffffffffffffffffffffffffffffffffffffff1673ffffffffffffffffffffffffffffffffffffffff16815260200190815260200160002060006101000a81548160ff02191690831515021790555050565b6000809054906101000a900473ffffffffffffffffffffffffffffffffffffffff1681565b6000600260008373ffffffffffffffffffffffffffffffffffffffff1673ffffffffffffffffffffffffffffffffffffffff16815260200190815260200160002060009054906101000a900460ff169050919050565b6000809054906101000a900473ffffffffffffffffffffffffffffffffffffffff1673ffffffffffffffffffffffffffffffffffffffff163373ffffffffffffffffffffffffffffffffffffffff161461085057600080fd5b806000806101000a81548173ffffffffffffffffffffffffffffffffffffffff021916908373ffffffffffffffffffffffffffffffffffffffff16021790555050565b60011515600160003373ffffffffffffffffffffffffffffffffffffffff1673ffffffffffffffffffffffffffffffffffffffff16815260200190815260200160002060009054906101000a900460ff161515146108f057600080fd5b600073ffffffffffffffffffffffffffffffffffffffff168173ffffffffffffffffffffffffffffffffffffffff16141580156109775750600260008273ffffffffffffffffffffffffffffffffffffffff1673ffffffffffffffffffffffffffffffffffffffff16815260200190815260200160002060009054906101000a900460ff16155b61098057600080fd5b6001600260008373ffffffffffffffffffffffffffffffffffffffff1673ffffffffffffffffffffffffffffffffffffffff16815260200190815260200160002060006101000a81548160ff0219169083151502179055505056fea165627a7a723058200030bf05fa756c658d6a9244a6ef6639cc88c7fa4216c58492c0c3b1027b46bf0029",
  "source": "pragma solidity ^0.5.2;\r\n/**\r\n *@notice The MyERC20Token implements the ERC20 token\r\n *@author brian wu\r\n */ \r\n\r\n/**\r\n * define owner, transfer owner and assign admin\r\n */\r\ncontract owned {\r\n    address public owner;\r\n    mapping(address => bool) admins;\r\n    constructor () internal {\r\n        owner = msg.sender;\r\n        admins[msg.sender] = true;\r\n    }\r\n    modifier onlyOwner {\r\n        require(msg.sender == owner);\r\n        _;\r\n    }\r\n    modifier onlyAdmin() {\r\n        require(admins[msg.sender] == true);\r\n            _;\r\n    }\r\n    function transferOwnership(address newOwner) onlyOwner public {\r\n        owner = newOwner;\r\n    }\r\n    function isAdmin(address account) onlyOwner public view returns (bool) {   \r\n        return admins[account];\r\n    }\r\n    function addAdmin(address account) onlyOwner public {\r\n        require(account != address(0) && !admins[account]);             \r\n        admins[account] = true;    \r\n    }\r\n    function removeAdmin(address account) onlyOwner public {\r\n        require(account != address(0) && !admins[account]);\r\n        admins[account] = true;    \r\n    }\r\n}\r\n/**\r\n * manage whitelsit\r\n */\r\ncontract Whitelist is owned {\r\n    mapping(address => bool) whitelist;\r\n    function addWhitelist(address account) onlyAdmin public{\r\n        require(account != address(0) && !whitelist[account]);             \r\n        whitelist[account] = true;    \r\n    }\r\n    function isWhitelist(address account) public view returns (bool) {   \r\n        return whitelist[account];\r\n    }\r\n    function removeWhitelisted(address account) public onlyAdmin {\r\n        require(account != address(0) && whitelist[account]);\r\n        whitelist[account] = false;    \r\n    }\r\n}\r\n/**\r\n * make contract function pausable\r\n */\r\ncontract Pausable is owned {\r\n    event PausedEvt(address account);\r\n    event UnpausedEvt(address account);\r\n    bool private paused;\r\n    constructor () internal {\r\n        paused = false;\r\n    }\r\n    modifier whenNotPaused() {\r\n        require(!paused);\r\n        _;\r\n    }\r\n    modifier whenPaused() {\r\n        require(paused);\r\n        _;\r\n    }\r\n    function pause() public onlyAdmin whenNotPaused {\r\n        paused = true;\r\n        emit PausedEvt(msg.sender);\r\n    }\r\n    function unpause() public onlyAdmin whenPaused {\r\n        paused = false;\r\n        emit UnpausedEvt(msg.sender);\r\n    }\r\n}\r\n/**\r\n *Interface for ERC20\r\n */\r\ninterface ERC20 {\r\n    function transfer(address to, uint256 value) external returns (bool);\r\n\r\n    function approve(address spender, uint256 value) external returns (bool);\r\n\r\n    function transferFrom(address from, address to, uint256 value) external returns (bool);\r\n\r\n    function totalSupply() external view returns (uint256);\r\n\r\n    function balanceOf(address who) external view returns (uint256);\r\n\r\n    function allowance(address owner, address spender) external view returns (uint256);\r\n\r\n    event Transfer(address indexed from, address indexed to, uint256 value);\r\n\r\n    event Approval(address indexed owner, address indexed spender, uint256 value);\r\n}\r\ncontract MyERC20Token is ERC20, Whitelist, Pausable {\r\n    TokenSummary public tokenSummary;\r\n    mapping(address => uint256) internal balances;\r\n    mapping (address => mapping (address => uint256)) internal allowed;\r\n    uint256 internal _totalSupply;\r\n    uint8 public constant SUCCESS_CODE = 0;\r\n    string public constant SUCCESS_MESSAGE = \"SUCCESS\";\r\n    uint8 public constant NON_WHITELIST_CODE = 1;\r\n    string public constant NON_WHITELIST_ERROR = \"ILLEGAL_TRANSFER_TO_NON_WHITELISTED_ADDRESS\";\r\n    event Transfer(address indexed from, address indexed to, uint256 value);\r\n    event Approval(address indexed owner, address indexed spender, uint256 value);\r\n    event Burn(address from, uint256 value);\r\n    struct TokenSummary {\r\n        address initialAccount;\r\n        string name;\r\n        string symbol;\r\n    }\r\n    constructor(string memory _name, string memory  _symbol, \r\n    address initialAccount, uint initialBalance) public payable {\r\n        addWhitelist(initialAccount);\r\n        balances[initialAccount] = initialBalance;\r\n        _totalSupply = initialBalance;\r\n        tokenSummary = TokenSummary(initialAccount, _name, _symbol);\r\n    }\r\n    modifier verify (address from, address to, uint256 value) {\r\n        uint8 restrictionCode = validateTransferRestricted(to);\r\n        require(restrictionCode == SUCCESS_CODE, messageHandler(restrictionCode));\r\n        _;\r\n    }\r\n    function validateTransferRestricted (address to) public view returns (uint8 restrictionCode) {\r\n        if (!isWhitelist(to)) {\r\n            restrictionCode = NON_WHITELIST_CODE;\r\n        } else {\r\n            restrictionCode = SUCCESS_CODE;\r\n        }\r\n    }\r\n    function messageHandler (uint8 restrictionCode) public pure returns (string memory message) {\r\n        if (restrictionCode == SUCCESS_CODE) {\r\n            message = SUCCESS_MESSAGE;\r\n        } else if(restrictionCode == NON_WHITELIST_CODE) {\r\n            message = NON_WHITELIST_ERROR;\r\n        }\r\n    }\r\n    function totalSupply() public view returns (uint256) {\r\n       return _totalSupply;\r\n    }\r\n    function balanceOf(address account) public view returns (uint256) {\r\n      return balances[account];\r\n    }\r\n    function transfer (address to, uint256 value) public verify(msg.sender, to, value)\r\n    whenNotPaused  returns (bool success) {\r\n        require(to != address(0) && balances[msg.sender]> value);\r\n        balances[msg.sender] = balances[msg.sender] - value;\r\n        balances[to] = balances[to] + value;\r\n        emit Transfer(msg.sender, to, value);\r\n        return true;\r\n    }\r\n    function transferFrom(address from, address spender,uint256 value) public verify(from, spender, value) whenNotPaused returns (bool) {\r\n        require(spender != address(0) && value <= balances[from] && value <= allowed[from][msg.sender]);\r\n        balances[from] = balances[from] - value;\r\n        balances[spender] = balances[spender] + value;\r\n        allowed[from][msg.sender] = allowed[from][msg.sender] - value;\r\n        emit Transfer(from, spender, value);\r\n        return true;\r\n  }\r\n  function allowance(address owner,address spender) public view returns (uint256) {\r\n    return allowed[owner][spender];\r\n  }\r\n  function approve(address spender, uint256 value) public returns (bool) {\r\n        require(spender != address(0));\r\n        allowed[msg.sender][spender] = value;\r\n        emit Approval(msg.sender, spender, value);\r\n        return true;\r\n   }\r\n  function burn(uint256 value) public whenNotPaused onlyAdmin returns (bool success) {\r\n    require(balances[msg.sender] >= value); \r\n    balances[msg.sender] -= value; \r\n    _totalSupply -= value;\r\n    emit Burn(msg.sender, value);\r\n    return true;\r\n }\r\n  function mint(address account, uint256 value) public whenNotPaused onlyAdmin returns (bool) {\r\n    require(account != address(0));\r\n    _totalSupply = _totalSupply += value;\r\n    balances[account] = balances[account] + value;\r\n    emit Transfer(address(0), account, value);\r\n    return true;\r\n  }\r\n  function ()  external payable {\r\n       revert();  \r\n  }\r\n}\r\n",
  "sourcePath": "D:/documents/publish/Learn Ehereum/sourcecode/MyERC20Token/contracts/MyERC20Token.sol",
  "compiler": {
    "name": "solc",
    "version": "0.5.8+commit.23d335f2.Emscripten.clang"
  },
  "schemaVersion": "3.0.9",
  "updatedAt": "2019-05-27T19:04:46.492Z",
  "devdoc": {
    "methods": {}
  },
  "userdoc": {
    "methods": {},
    "notice": "manage whitelsit\r"
  }
}